{
  "_format": "hh-sol-artifact-1",
  "contractName": "ERC721",
  "sourceName": "contracts/ERC721.sol",
  "abi": [
    {
      "inputs": [
        {
          "internalType": "string",
          "name": "name_",
          "type": "string"
        },
        {
          "internalType": "string",
          "name": "symbol_",
          "type": "string"
        }
      ],
      "stateMutability": "nonpayable",
      "type": "constructor"
    },
    {
      "anonymous": false,
      "inputs": [
        {
          "indexed": true,
          "internalType": "address",
          "name": "owner",
          "type": "address"
        },
        {
          "indexed": true,
          "internalType": "address",
          "name": "approved",
          "type": "address"
        },
        {
          "indexed": true,
          "internalType": "uint256",
          "name": "tokenId",
          "type": "uint256"
        }
      ],
      "name": "Approval",
      "type": "event"
    },
    {
      "anonymous": false,
      "inputs": [
        {
          "indexed": true,
          "internalType": "address",
          "name": "owner",
          "type": "address"
        },
        {
          "indexed": true,
          "internalType": "address",
          "name": "operator",
          "type": "address"
        },
        {
          "indexed": false,
          "internalType": "bool",
          "name": "approved",
          "type": "bool"
        }
      ],
      "name": "ApprovalForAll",
      "type": "event"
    },
    {
      "anonymous": false,
      "inputs": [
        {
          "indexed": true,
          "internalType": "uint256",
          "name": "tokenId",
          "type": "uint256"
        },
        {
          "indexed": true,
          "internalType": "address",
          "name": "owner",
          "type": "address"
        },
        {
          "indexed": false,
          "internalType": "uint256",
          "name": "supplyAfterBurn",
          "type": "uint256"
        }
      ],
      "name": "Burned",
      "type": "event"
    },
    {
      "anonymous": false,
      "inputs": [
        {
          "indexed": true,
          "internalType": "uint256",
          "name": "tokenId",
          "type": "uint256"
        },
        {
          "indexed": false,
          "internalType": "uint256",
          "name": "totalEverMinted",
          "type": "uint256"
        },
        {
          "indexed": true,
          "internalType": "uint256",
          "name": "timestamp",
          "type": "uint256"
        },
        {
          "indexed": true,
          "internalType": "address",
          "name": "to",
          "type": "address"
        },
        {
          "indexed": false,
          "internalType": "uint256",
          "name": "supplyAfterMint",
          "type": "uint256"
        }
      ],
      "name": "Minted",
      "type": "event"
    },
    {
      "anonymous": false,
      "inputs": [
        {
          "indexed": true,
          "internalType": "address",
          "name": "from",
          "type": "address"
        },
        {
          "indexed": true,
          "internalType": "address",
          "name": "to",
          "type": "address"
        },
        {
          "indexed": true,
          "internalType": "uint256",
          "name": "tokenId",
          "type": "uint256"
        }
      ],
      "name": "Transfer",
      "type": "event"
    },
    {
      "inputs": [
        {
          "internalType": "address",
          "name": "to",
          "type": "address"
        },
        {
          "internalType": "uint256",
          "name": "tokenId",
          "type": "uint256"
        }
      ],
      "name": "approve",
      "outputs": [],
      "stateMutability": "nonpayable",
      "type": "function"
    },
    {
      "inputs": [
        {
          "internalType": "address",
          "name": "owner",
          "type": "address"
        }
      ],
      "name": "balanceOf",
      "outputs": [
        {
          "internalType": "uint256",
          "name": "",
          "type": "uint256"
        }
      ],
      "stateMutability": "view",
      "type": "function"
    },
    {
      "inputs": [],
      "name": "baseURI",
      "outputs": [
        {
          "internalType": "string",
          "name": "",
          "type": "string"
        }
      ],
      "stateMutability": "view",
      "type": "function"
    },
    {
      "inputs": [
        {
          "internalType": "address",
          "name": "burner",
          "type": "address"
        },
        {
          "internalType": "uint256",
          "name": "tokenId",
          "type": "uint256"
        }
      ],
      "name": "burn",
      "outputs": [],
      "stateMutability": "nonpayable",
      "type": "function"
    },
    {
      "inputs": [],
      "name": "curve",
      "outputs": [
        {
          "internalType": "address",
          "name": "",
          "type": "address"
        }
      ],
      "stateMutability": "view",
      "type": "function"
    },
    {
      "inputs": [
        {
          "internalType": "bytes32",
          "name": "_hash",
          "type": "bytes32"
        }
      ],
      "name": "generateSVGFromHash",
      "outputs": [
        {
          "internalType": "string",
          "name": "",
          "type": "string"
        }
      ],
      "stateMutability": "view",
      "type": "function"
    },
    {
      "inputs": [
        {
          "internalType": "uint256",
          "name": "_tokenId",
          "type": "uint256"
        }
      ],
      "name": "generateSVGofTokenById",
      "outputs": [
        {
          "internalType": "string",
          "name": "",
          "type": "string"
        }
      ],
      "stateMutability": "view",
      "type": "function"
    },
    {
      "inputs": [
        {
          "internalType": "uint256",
          "name": "tokenId",
          "type": "uint256"
        }
      ],
      "name": "getApproved",
      "outputs": [
        {
          "internalType": "address",
          "name": "",
          "type": "address"
        }
      ],
      "stateMutability": "view",
      "type": "function"
    },
    {
      "inputs": [
        {
          "internalType": "address",
          "name": "owner",
          "type": "address"
        },
        {
          "internalType": "address",
          "name": "operator",
          "type": "address"
        }
      ],
      "name": "isApprovedForAll",
      "outputs": [
        {
          "internalType": "bool",
          "name": "",
          "type": "bool"
        }
      ],
      "stateMutability": "view",
      "type": "function"
    },
    {
      "inputs": [
        {
          "internalType": "address",
          "name": "to",
          "type": "address"
        }
      ],
      "name": "mint",
      "outputs": [
        {
          "internalType": "uint256",
          "name": "newTokenId",
          "type": "uint256"
        }
      ],
      "stateMutability": "nonpayable",
      "type": "function"
    },
    {
      "inputs": [],
      "name": "name",
      "outputs": [
        {
          "internalType": "string",
          "name": "",
          "type": "string"
        }
      ],
      "stateMutability": "view",
      "type": "function"
    },
    {
      "inputs": [
        {
          "internalType": "uint256",
          "name": "tokenId",
          "type": "uint256"
        }
      ],
      "name": "ownerOf",
      "outputs": [
        {
          "internalType": "address",
          "name": "",
          "type": "address"
        }
      ],
      "stateMutability": "view",
      "type": "function"
    },
    {
      "inputs": [
        {
          "internalType": "address",
          "name": "from",
          "type": "address"
        },
        {
          "internalType": "address",
          "name": "to",
          "type": "address"
        },
        {
          "internalType": "uint256",
          "name": "tokenId",
          "type": "uint256"
        }
      ],
      "name": "safeTransferFrom",
      "outputs": [],
      "stateMutability": "nonpayable",
      "type": "function"
    },
    {
      "inputs": [
        {
          "internalType": "address",
          "name": "from",
          "type": "address"
        },
        {
          "internalType": "address",
          "name": "to",
          "type": "address"
        },
        {
          "internalType": "uint256",
          "name": "tokenId",
          "type": "uint256"
        },
        {
          "internalType": "bytes",
          "name": "_data",
          "type": "bytes"
        }
      ],
      "name": "safeTransferFrom",
      "outputs": [],
      "stateMutability": "nonpayable",
      "type": "function"
    },
    {
      "inputs": [
        {
          "internalType": "address",
          "name": "operator",
          "type": "address"
        },
        {
          "internalType": "bool",
          "name": "approved",
          "type": "bool"
        }
      ],
      "name": "setApprovalForAll",
      "outputs": [],
      "stateMutability": "nonpayable",
      "type": "function"
    },
    {
      "inputs": [
        {
          "internalType": "bytes4",
          "name": "interfaceId",
          "type": "bytes4"
        }
      ],
      "name": "supportsInterface",
      "outputs": [
        {
          "internalType": "bool",
          "name": "",
          "type": "bool"
        }
      ],
      "stateMutability": "view",
      "type": "function"
    },
    {
      "inputs": [],
      "name": "symbol",
      "outputs": [
        {
          "internalType": "string",
          "name": "",
          "type": "string"
        }
      ],
      "stateMutability": "view",
      "type": "function"
    },
    {
      "inputs": [
        {
          "internalType": "uint256",
          "name": "index",
          "type": "uint256"
        }
      ],
      "name": "tokenByIndex",
      "outputs": [
        {
          "internalType": "uint256",
          "name": "",
          "type": "uint256"
        }
      ],
      "stateMutability": "view",
      "type": "function"
    },
    {
      "inputs": [
        {
          "internalType": "address",
          "name": "owner",
          "type": "address"
        },
        {
          "internalType": "uint256",
          "name": "index",
          "type": "uint256"
        }
      ],
      "name": "tokenOfOwnerByIndex",
      "outputs": [
        {
          "internalType": "uint256",
          "name": "",
          "type": "uint256"
        }
      ],
      "stateMutability": "view",
      "type": "function"
    },
    {
      "inputs": [
        {
          "internalType": "uint256",
          "name": "tokenId",
          "type": "uint256"
        }
      ],
      "name": "tokenURI",
      "outputs": [
        {
          "internalType": "string",
          "name": "",
          "type": "string"
        }
      ],
      "stateMutability": "view",
      "type": "function"
    },
    {
      "inputs": [],
      "name": "totalEverMinted",
      "outputs": [
        {
          "internalType": "uint256",
          "name": "",
          "type": "uint256"
        }
      ],
      "stateMutability": "view",
      "type": "function"
    },
    {
      "inputs": [],
      "name": "totalSupply",
      "outputs": [
        {
          "internalType": "uint256",
          "name": "",
          "type": "uint256"
        }
      ],
      "stateMutability": "view",
      "type": "function"
    },
    {
      "inputs": [
        {
          "internalType": "address",
          "name": "from",
          "type": "address"
        },
        {
          "internalType": "address",
          "name": "to",
          "type": "address"
        },
        {
          "internalType": "uint256",
          "name": "tokenId",
          "type": "uint256"
        }
      ],
      "name": "transferFrom",
      "outputs": [],
      "stateMutability": "nonpayable",
      "type": "function"
    }
  ],
  "bytecode": "0x60806040526000600b553480156200001657600080fd5b506040516200475638038062004756833981810160405260408110156200003c57600080fd5b81019080805160405193929190846401000000008211156200005d57600080fd5b838201915060208201858111156200007457600080fd5b82518660018202830111640100000000821117156200009257600080fd5b8083526020830192505050908051906020019080838360005b83811015620000c8578082015181840152602081019050620000ab565b50505050905090810190601f168015620000f65780820380516001836020036101000a031916815260200191505b50604052602001805160405193929190846401000000008211156200011a57600080fd5b838201915060208201858111156200013157600080fd5b82518660018202830111640100000000821117156200014f57600080fd5b8083526020830192505050908051906020019080838360005b838110156200018557808201518184015260208101905062000168565b50505050905090810190601f168015620001b35780820380516001836020036101000a031916815260200191505b50604052505050620001d26301ffc9a760e01b6200057b60201b60201c565b8160069080519060200190620001ea929190620006a0565b50806007908051906020019062000203929190620006a0565b506200021c6380ac58cd60e01b6200057b60201b60201c565b62000234635b5e139f60e01b6200057b60201b60201c565b6200024c63780e9d6360e01b6200057b60201b60201c565b620002926040518060400160405280602081526020017f68747470733a2f2f6e656f6c6173746963732e636f6d2f6d657461646174612f8152506200068460201b60201c565b33600a60006101000a81548173ffffffffffffffffffffffffffffffffffffffff021916908373ffffffffffffffffffffffffffffffffffffffff160217905550600c80600181540180825580915050600190039060005260206000200160006040518060400160405280600781526020017f23666163393031000000000000000000000000000000000000000000000000008152509091909150908051906020019062000342929190620006a0565b50600c80600181540180825580915050600190039060005260206000200160006040518060400160405280600781526020017f233232353039350000000000000000000000000000000000000000000000000081525090919091509080519060200190620003b2929190620006a0565b50600c80600181540180825580915050600190039060005260206000200160006040518060400160405280600781526020017f23646430313030000000000000000000000000000000000000000000000000008152509091909150908051906020019062000422929190620006a0565b50600c80600181540180825580915050600190039060005260206000200160006040518060400160405280600781526020017f23666666666666000000000000000000000000000000000000000000000000008152509091909150908051906020019062000492929190620006a0565b50600c80600181540180825580915050600190039060005260206000200160006040518060400160405280600781526020017f23303030303030000000000000000000000000000000000000000000000000008152509091909150908051906020019062000502929190620006a0565b50600c80600181540180825580915050600190039060005260206000200160006040518060400160405280600781526020017f23303037373046000000000000000000000000000000000000000000000000008152509091909150908051906020019062000572929190620006a0565b50505062000746565b63ffffffff60e01b817bffffffffffffffffffffffffffffffffffffffffffffffffffffffff1916141562000618576040517f08c379a000000000000000000000000000000000000000000000000000000000815260040180806020018281038252601c8152602001807f4552433136353a20696e76616c696420696e746572666163652069640000000081525060200191505060405180910390fd5b6001600080837bffffffffffffffffffffffffffffffffffffffffffffffffffffffff19167bffffffffffffffffffffffffffffffffffffffffffffffffffffffff1916815260200190815260200160002060006101000a81548160ff02191690831515021790555050565b80600990805190602001906200069c929190620006a0565b5050565b828054600181600116156101000203166002900490600052602060002090601f016020900481019282601f10620006e357805160ff191683800117855562000714565b8280016001018555821562000714579182015b8281111562000713578251825591602001919060010190620006f6565b5b50905062000723919062000727565b5090565b5b808211156200074257600081600090555060010162000728565b5090565b61400080620007566000396000f3fe608060405234801561001057600080fd5b506004361061014d5760003560e01c80636c0360eb116100c357806395d89b411161007c57806395d89b41146107a75780639dc29fac1461082a578063a22cb46514610878578063b88d4fde146108c8578063c87b56dd146109cd578063e985e9c514610a745761014d565b80636c0360eb1461052c57806370a08231146105af5780637165485d14610607578063719b7c1d1461063b5780638fdb5824146106e2578063924808b4146107895761014d565b806323b872dd1161011557806323b872dd146102fc5780632f745c591461036a57806342842e0e146103cc5780634f6ccce71461043a5780636352211e1461047c5780636a627842146104d45761014d565b806301ffc9a71461015257806306fdde03146101b5578063081812fc14610238578063095ea7b31461029057806318160ddd146102de575b600080fd5b61019d6004803603602081101561016857600080fd5b8101908080357bffffffffffffffffffffffffffffffffffffffffffffffffffffffff19169060200190929190505050610aee565b60405180821515815260200191505060405180910390f35b6101bd610b55565b6040518080602001828103825283818151815260200191508051906020019080838360005b838110156101fd5780820151818401526020810190506101e2565b50505050905090810190601f16801561022a5780820380516001836020036101000a031916815260200191505b509250505060405180910390f35b6102646004803603602081101561024e57600080fd5b8101908080359060200190929190505050610bf7565b604051808273ffffffffffffffffffffffffffffffffffffffff16815260200191505060405180910390f35b6102dc600480360360408110156102a657600080fd5b81019080803573ffffffffffffffffffffffffffffffffffffffff16906020019092919080359060200190929190505050610c92565b005b6102e6610dc8565b6040518082815260200191505060405180910390f35b6103686004803603606081101561031257600080fd5b81019080803573ffffffffffffffffffffffffffffffffffffffff169060200190929190803573ffffffffffffffffffffffffffffffffffffffff16906020019092919080359060200190929190505050610dd9565b005b6103b66004803603604081101561038057600080fd5b81019080803573ffffffffffffffffffffffffffffffffffffffff16906020019092919080359060200190929190505050610e48565b6040518082815260200191505060405180910390f35b610438600480360360608110156103e257600080fd5b81019080803573ffffffffffffffffffffffffffffffffffffffff169060200190929190803573ffffffffffffffffffffffffffffffffffffffff16906020019092919080359060200190929190505050610ea3565b005b6104666004803603602081101561045057600080fd5b8101908080359060200190929190505050610ec3565b6040518082815260200191505060405180910390f35b6104a86004803603602081101561049257600080fd5b8101908080359060200190929190505050610ee6565b604051808273ffffffffffffffffffffffffffffffffffffffff16815260200191505060405180910390f35b610516600480360360208110156104ea57600080fd5b81019080803573ffffffffffffffffffffffffffffffffffffffff169060200190929190505050610f1d565b6040518082815260200191505060405180910390f35b6105346110a9565b6040518080602001828103825283818151815260200191508051906020019080838360005b83811015610574578082015181840152602081019050610559565b50505050905090810190601f1680156105a15780820380516001836020036101000a031916815260200191505b509250505060405180910390f35b6105f1600480360360208110156105c557600080fd5b81019080803573ffffffffffffffffffffffffffffffffffffffff16906020019092919050505061114b565b6040518082815260200191505060405180910390f35b61060f611220565b604051808273ffffffffffffffffffffffffffffffffffffffff16815260200191505060405180910390f35b6106676004803603602081101561065157600080fd5b8101908080359060200190929190505050611246565b6040518080602001828103825283818151815260200191508051906020019080838360005b838110156106a757808201518184015260208101905061068c565b50505050905090810190601f1680156106d45780820380516001836020036101000a031916815260200191505b509250505060405180910390f35b61070e600480360360208110156106f857600080fd5b810190808035906020019092919050505061125b565b6040518080602001828103825283818151815260200191508051906020019080838360005b8381101561074e578082015181840152602081019050610733565b50505050905090810190601f16801561077b5780820380516001836020036101000a031916815260200191505b509250505060405180910390f35b610791611d5e565b6040518082815260200191505060405180910390f35b6107af611d64565b6040518080602001828103825283818151815260200191508051906020019080838360005b838110156107ef5780820151818401526020810190506107d4565b50505050905090810190601f16801561081c5780820380516001836020036101000a031916815260200191505b509250505060405180910390f35b6108766004803603604081101561084057600080fd5b81019080803573ffffffffffffffffffffffffffffffffffffffff16906020019092919080359060200190929190505050611e06565b005b6108c66004803603604081101561088e57600080fd5b81019080803573ffffffffffffffffffffffffffffffffffffffff169060200190929190803515159060200190929190505050611f9b565b005b6109cb600480360360808110156108de57600080fd5b81019080803573ffffffffffffffffffffffffffffffffffffffff169060200190929190803573ffffffffffffffffffffffffffffffffffffffff169060200190929190803590602001909291908035906020019064010000000081111561094557600080fd5b82018360208201111561095757600080fd5b8035906020019184600183028401116401000000008311171561097957600080fd5b91908080601f016020809104026020016040519081016040528093929190818152602001838380828437600081840152601f19601f82011690508083019250505050505050919291929050505061213c565b005b6109f9600480360360208110156109e357600080fd5b81019080803590602001909291905050506121ad565b6040518080602001828103825283818151815260200191508051906020019080838360005b83811015610a39578082015181840152602081019050610a1e565b50505050905090810190601f168015610a665780820380516001836020036101000a031916815260200191505b509250505060405180910390f35b610ad660048036036040811015610a8a57600080fd5b81019080803573ffffffffffffffffffffffffffffffffffffffff169060200190929190803573ffffffffffffffffffffffffffffffffffffffff169060200190929190505050612496565b60405180821515815260200191505060405180910390f35b6000806000837bffffffffffffffffffffffffffffffffffffffffffffffffffffffff19167bffffffffffffffffffffffffffffffffffffffffffffffffffffffff1916815260200190815260200160002060009054906101000a900460ff169050919050565b606060068054600181600116156101000203166002900480601f016020809104026020016040519081016040528092919081815260200182805460018160011615610100020316600290048015610bed5780601f10610bc257610100808354040283529160200191610bed565b820191906000526020600020905b815481529060010190602001808311610bd057829003601f168201915b5050505050905090565b6000610c028261252a565b610c57576040517f08c379a000000000000000000000000000000000000000000000000000000000815260040180806020018281038252602c815260200180613de6602c913960400191505060405180910390fd5b6004600083815260200190815260200160002060009054906101000a900473ffffffffffffffffffffffffffffffffffffffff169050919050565b6000610c9d82610ee6565b90508073ffffffffffffffffffffffffffffffffffffffff168373ffffffffffffffffffffffffffffffffffffffff161415610d24576040517f08c379a0000000000000000000000000000000000000000000000000000000008152600401808060200182810382526021815260200180613e8d6021913960400191505060405180910390fd5b8073ffffffffffffffffffffffffffffffffffffffff163373ffffffffffffffffffffffffffffffffffffffff161480610d645750610d638133612496565b5b610db9576040517f08c379a0000000000000000000000000000000000000000000000000000000008152600401808060200182810382526038815260200180613ca66038913960400191505060405180910390fd5b610dc38383612547565b505050565b6000610dd46002612600565b905090565b610de33382612615565b610e38576040517f08c379a0000000000000000000000000000000000000000000000000000000008152600401808060200182810382526031815260200180613ee96031913960400191505060405180910390fd5b610e43838383612709565b505050565b6000610e9b82600160008673ffffffffffffffffffffffffffffffffffffffff1673ffffffffffffffffffffffffffffffffffffffff16815260200190815260200160002061294190919063ffffffff16565b905092915050565b610ebe8383836040518060200160405280600081525061213c565b505050565b600080610eda83600261295b90919063ffffffff16565b50905080915050919050565b6000610f1682604051806060016040528060298152602001613d086029913960026129879092919063ffffffff16565b9050919050565b6000600a60009054906101000a900473ffffffffffffffffffffffffffffffffffffffff1673ffffffffffffffffffffffffffffffffffffffff163373ffffffffffffffffffffffffffffffffffffffff1614610fc5576040517f08c379a0000000000000000000000000000000000000000000000000000000008152600401808060200182810382526023815260200180613e126023913960400191505060405180910390fd5b6000600b544284604051602001808481526020018381526020018273ffffffffffffffffffffffffffffffffffffffff1660601b8152601401935050505060405160208183030381529060405280519060200120905060008160001c905061102d84826129a6565b6001600b600082825401925050819055508373ffffffffffffffffffffffffffffffffffffffff1642827f393cd7b3ace4802d7cab7785cdcbcb9afb3a046d34f1e1b3ba0060f9cffc2687600b54611083610dc8565b604051808381526020018281526020019250505060405180910390a48092505050919050565b606060098054600181600116156101000203166002900480601f0160208091040260200160405190810160405280929190818152602001828054600181600116156101000203166002900480156111415780601f1061111657610100808354040283529160200191611141565b820191906000526020600020905b81548152906001019060200180831161112457829003601f168201915b5050505050905090565b60008073ffffffffffffffffffffffffffffffffffffffff168273ffffffffffffffffffffffffffffffffffffffff1614156111d2576040517f08c379a000000000000000000000000000000000000000000000000000000000815260040180806020018281038252602a815260200180613cde602a913960400191505060405180910390fd5b611219600160008473ffffffffffffffffffffffffffffffffffffffff1673ffffffffffffffffffffffffffffffffffffffff168152602001908152602001600020612b8e565b9050919050565b600a60009054906101000a900473ffffffffffffffffffffffffffffffffffffffff1681565b60606112548260001b61125b565b9050919050565b606080826040516020018082815260200191505060405160208183030381529060405290506060600c6033611291846000612ba3565b60ff168161129b57fe5b0460ff16815481106112a957fe5b906000526020600020016040516020018080613bd6603791396037018280546001816001161561010002031660029004801561131c5780601f106112fa57610100808354040283529182019161131c565b820191906000526020600020905b815481529060010190602001808311611308575b5050807f3b7374726f6b652d77696474683a333b7374726f6b653a626c61636b272f3e00815250601f01915050604051602081830303815290604052600c6033611367856001612ba3565b60ff168161137157fe5b0460ff168154811061137f57fe5b906000526020600020016040516020018080613b6b60399139603901828054600181600116156101000203166002900480156113f25780601f106113d05761010080835404028352918201916113f2565b820191906000526020600020905b8154815290600101906020018083116113de575b5050807f3b7374726f6b652d77696474683a333b7374726f6b653a626c61636b272f3e00815250601f01915050604051602081830303815290604052600c603361143d866002612ba3565b60ff168161144757fe5b0460ff168154811061145557fe5b906000526020600020016040516020018080613d3160399139603901828054600181600116156101000203166002900480156114c85780601f106114a65761010080835404028352918201916114c8565b820191906000526020600020905b8154815290600101906020018083116114b4575b5050807f3b7374726f6b652d77696474683a333b7374726f6b653a626c61636b272f3e00815250601f01915050604051602081830303815290604052600c6033611513876003612ba3565b60ff168161151d57fe5b0460ff168154811061152b57fe5b906000526020600020016040516020018080613b32603991396039018280546001816001161561010002031660029004801561159e5780601f1061157c57610100808354040283529182019161159e565b820191906000526020600020905b81548152906001019060200180831161158a575b5050807f3b7374726f6b652d77696474683a333b7374726f6b653a626c61636b272f3e00815250601f01915050604051602081830303815290604052600c60336115e9886004612ba3565b60ff16816115f357fe5b0460ff168154811061160157fe5b906000526020600020016040516020018080613f55603b9139603b01828054600181600116156101000203166002900480156116745780601f10611652576101008083540402835291820191611674565b820191906000526020600020905b815481529060010190602001808311611660575b5050807f3b7374726f6b652d77696474683a333b7374726f6b653a626c61636b272f3e00815250601f01915050604051602081830303815290604052600c60336116bf896005612ba3565b60ff16816116c957fe5b0460ff16815481106116d757fe5b906000526020600020016040516020018080613f1a603b9139603b018280546001816001161561010002031660029004801561174a5780601f1061172857610100808354040283529182019161174a565b820191906000526020600020905b815481529060010190602001808311611736575b5050807f3b7374726f6b652d77696474683a333b7374726f6b653a626c61636b272f3e00815250601f01915050604051602081830303815290604052600c60336117958a6006612ba3565b60ff168161179f57fe5b0460ff16815481106117ad57fe5b906000526020600020016040516020018080613d6a60399139603901828054600181600116156101000203166002900480156118205780601f106117fe576101008083540402835291820191611820565b820191906000526020600020905b81548152906001019060200180831161180c575b5050807f3b7374726f6b652d77696474683a333b7374726f6b653a626c61636b272f3e00815250601f01915050604051602081830303815290604052600c603361186b8b6007612ba3565b60ff168161187557fe5b0460ff168154811061188357fe5b906000526020600020016040516020018080613f90603b9139603b01828054600181600116156101000203166002900480156118f65780601f106118d45761010080835404028352918201916118f6565b820191906000526020600020905b8154815290600101906020018083116118e2575b5050807f3b7374726f6b652d77696474683a333b7374726f6b653a626c61636b272f3e00815250601f01915050604051602081830303815290604052600c60336119418c6008612ba3565b60ff168161194b57fe5b0460ff168154811061195957fe5b906000526020600020016040516020018080613eae603b9139603b01828054600181600116156101000203166002900480156119cc5780601f106119aa5761010080835404028352918201916119cc565b820191906000526020600020905b8154815290600101906020018083116119b8575b5050807f3b7374726f6b652d77696474683a333b7374726f6b653a626c61636b272f3e00815250601f0191505060405160208183030381529060405260405160200180807f3c7376672077696474683d2733303027206865696768743d27333030273e0000815250601e018a805190602001908083835b60208310611a665780518252602082019150602081019050602083039250611a43565b6001836020036101000a03801982511681845116808217855250505050505090500189805190602001908083835b60208310611ab75780518252602082019150602081019050602083039250611a94565b6001836020036101000a03801982511681845116808217855250505050505090500188805190602001908083835b60208310611b085780518252602082019150602081019050602083039250611ae5565b6001836020036101000a03801982511681845116808217855250505050505090500187805190602001908083835b60208310611b595780518252602082019150602081019050602083039250611b36565b6001836020036101000a03801982511681845116808217855250505050505090500186805190602001908083835b60208310611baa5780518252602082019150602081019050602083039250611b87565b6001836020036101000a03801982511681845116808217855250505050505090500185805190602001908083835b60208310611bfb5780518252602082019150602081019050602083039250611bd8565b6001836020036101000a03801982511681845116808217855250505050505090500184805190602001908083835b60208310611c4c5780518252602082019150602081019050602083039250611c29565b6001836020036101000a03801982511681845116808217855250505050505090500183805190602001908083835b60208310611c9d5780518252602082019150602081019050602083039250611c7a565b6001836020036101000a03801982511681845116808217855250505050505090500182805190602001908083835b60208310611cee5780518252602082019150602081019050602083039250611ccb565b6001836020036101000a038019825116818451168082178552505050505050905001807f3c2f7376673e0000000000000000000000000000000000000000000000000000815250600601995050505050505050505060405160208183030381529060405290508092505050919050565b600b5481565b606060078054600181600116156101000203166002900480601f016020809104026020016040519081016040528092919081815260200182805460018160011615610100020316600290048015611dfc5780601f10611dd157610100808354040283529160200191611dfc565b820191906000526020600020905b815481529060010190602001808311611ddf57829003601f168201915b5050505050905090565b600a60009054906101000a900473ffffffffffffffffffffffffffffffffffffffff1673ffffffffffffffffffffffffffffffffffffffff163373ffffffffffffffffffffffffffffffffffffffff1614611eac576040517f08c379a0000000000000000000000000000000000000000000000000000000008152600401808060200182810382526023815260200180613c0d6023913960400191505060405180910390fd5b611eb581610ee6565b73ffffffffffffffffffffffffffffffffffffffff168273ffffffffffffffffffffffffffffffffffffffff1614611f38576040517f08c379a0000000000000000000000000000000000000000000000000000000008152600401808060200182810382526021815260200180613dc56021913960400191505060405180910390fd5b611f4181612cad565b8173ffffffffffffffffffffffffffffffffffffffff16817f7a6396f9141e42bbd82eddb43e30077ef07aaafcd4ee3dfbd6adb1dca8f2445a611f82610dc8565b6040518082815260200191505060405180910390a35050565b3373ffffffffffffffffffffffffffffffffffffffff168273ffffffffffffffffffffffffffffffffffffffff16141561203d576040517f08c379a00000000000000000000000000000000000000000000000000000000081526004018080602001828103825260198152602001807f4552433732313a20617070726f766520746f2063616c6c65720000000000000081525060200191505060405180910390fd5b80600560003373ffffffffffffffffffffffffffffffffffffffff1673ffffffffffffffffffffffffffffffffffffffff16815260200190815260200160002060008473ffffffffffffffffffffffffffffffffffffffff1673ffffffffffffffffffffffffffffffffffffffff16815260200190815260200160002060006101000a81548160ff0219169083151502179055508173ffffffffffffffffffffffffffffffffffffffff163373ffffffffffffffffffffffffffffffffffffffff167f17307eab39ab6107e8899845ad3d59bd9653f200f220920489ca2b5937696c318360405180821515815260200191505060405180910390a35050565b6121463383612615565b61219b576040517f08c379a0000000000000000000000000000000000000000000000000000000008152600401808060200182810382526031815260200180613ee96031913960400191505060405180910390fd5b6121a784848484612ddb565b50505050565b60606121b88261252a565b61220d576040517f08c379a000000000000000000000000000000000000000000000000000000000815260040180806020018281038252602f815260200180613e5e602f913960400191505060405180910390fd5b6060600860008481526020019081526020016000208054600181600116156101000203166002900480601f0160208091040260200160405190810160405280929190818152602001828054600181600116156101000203166002900480156122b65780601f1061228b576101008083540402835291602001916122b6565b820191906000526020600020905b81548152906001019060200180831161229957829003601f168201915b505050505090506000600980546001816001161561010002031660029004905014156122e55780915050612491565b6000815111156123be5760098160405160200180838054600181600116156101000203166002900480156123505780601f1061232e576101008083540402835291820191612350565b820191906000526020600020905b81548152906001019060200180831161233c575b505082805190602001908083835b60208310612381578051825260208201915060208101905060208303925061235e565b6001836020036101000a03801982511681845116808217855250505050505090500192505050604051602081830303815290604052915050612491565b60096123c984612e4d565b60405160200180838054600181600116156101000203166002900480156124275780601f10612405576101008083540402835291820191612427565b820191906000526020600020905b815481529060010190602001808311612413575b505082805190602001908083835b602083106124585780518252602082019150602081019050602083039250612435565b6001836020036101000a038019825116818451168082178552505050505050905001925050506040516020818303038152906040529150505b919050565b6000600560008473ffffffffffffffffffffffffffffffffffffffff1673ffffffffffffffffffffffffffffffffffffffff16815260200190815260200160002060008373ffffffffffffffffffffffffffffffffffffffff1673ffffffffffffffffffffffffffffffffffffffff16815260200190815260200160002060009054906101000a900460ff16905092915050565b6000612540826002612f9490919063ffffffff16565b9050919050565b816004600083815260200190815260200160002060006101000a81548173ffffffffffffffffffffffffffffffffffffffff021916908373ffffffffffffffffffffffffffffffffffffffff160217905550808273ffffffffffffffffffffffffffffffffffffffff166125ba83610ee6565b73ffffffffffffffffffffffffffffffffffffffff167f8c5be1e5ebec7d5bd14f71427d1e84f3dd0314c0f7b2291e5b200ac8c7c3b92560405160405180910390a45050565b600061260e82600001612fae565b9050919050565b60006126208261252a565b612675576040517f08c379a000000000000000000000000000000000000000000000000000000000815260040180806020018281038252602c815260200180613c7a602c913960400191505060405180910390fd5b600061268083610ee6565b90508073ffffffffffffffffffffffffffffffffffffffff168473ffffffffffffffffffffffffffffffffffffffff1614806126ef57508373ffffffffffffffffffffffffffffffffffffffff166126d784610bf7565b73ffffffffffffffffffffffffffffffffffffffff16145b8061270057506126ff8185612496565b5b91505092915050565b8273ffffffffffffffffffffffffffffffffffffffff1661272982610ee6565b73ffffffffffffffffffffffffffffffffffffffff1614612795576040517f08c379a0000000000000000000000000000000000000000000000000000000008152600401808060200182810382526029815260200180613e356029913960400191505060405180910390fd5b600073ffffffffffffffffffffffffffffffffffffffff168273ffffffffffffffffffffffffffffffffffffffff16141561281b576040517f08c379a0000000000000000000000000000000000000000000000000000000008152600401808060200182810382526024815260200180613c306024913960400191505060405180910390fd5b612826600082612547565b61287781600160008673ffffffffffffffffffffffffffffffffffffffff1673ffffffffffffffffffffffffffffffffffffffff168152602001908152602001600020612fbf90919063ffffffff16565b506128c981600160008573ffffffffffffffffffffffffffffffffffffffff1673ffffffffffffffffffffffffffffffffffffffff168152602001908152602001600020612fd990919063ffffffff16565b506128e081836002612ff39092919063ffffffff16565b50808273ffffffffffffffffffffffffffffffffffffffff168473ffffffffffffffffffffffffffffffffffffffff167fddf252ad1be2c89b69c2b068fc378daa952ba7f163c4a11628f55a4df523b3ef60405160405180910390a4505050565b60006129508360000183613028565b60001c905092915050565b60008060008061296e86600001866130ab565b915091508160001c8160001c9350935050509250929050565b600061299a846000018460001b84613144565b60001c90509392505050565b600073ffffffffffffffffffffffffffffffffffffffff168273ffffffffffffffffffffffffffffffffffffffff161415612a49576040517f08c379a00000000000000000000000000000000000000000000000000000000081526004018080602001828103825260208152602001807f4552433732313a206d696e7420746f20746865207a65726f206164647265737381525060200191505060405180910390fd5b612a528161252a565b15612ac5576040517f08c379a000000000000000000000000000000000000000000000000000000000815260040180806020018281038252601c8152602001807f4552433732313a20746f6b656e20616c7265616479206d696e7465640000000081525060200191505060405180910390fd5b612b1681600160008573ffffffffffffffffffffffffffffffffffffffff1673ffffffffffffffffffffffffffffffffffffffff168152602001908152602001600020612fd990919063ffffffff16565b50612b2d81836002612ff39092919063ffffffff16565b50808273ffffffffffffffffffffffffffffffffffffffff16600073ffffffffffffffffffffffffffffffffffffffff167fddf252ad1be2c89b69c2b068fc378daa952ba7f163c4a11628f55a4df523b3ef60405160405180910390a45050565b6000612b9c8260000161323a565b9050919050565b600081600183011015612c1e576040517f08c379a00000000000000000000000000000000000000000000000000000000081526004018080602001828103825260108152602001807f746f55696e74385f6f766572666c6f770000000000000000000000000000000081525060200191505060405180910390fd5b6001820183511015612c98576040517f08c379a00000000000000000000000000000000000000000000000000000000081526004018080602001828103825260138152602001807f746f55696e74385f6f75744f66426f756e64730000000000000000000000000081525060200191505060405180910390fd5b60008260018501015190508091505092915050565b6000612cb882610ee6565b9050612cc5600083612547565b60006008600084815260200190815260200160002080546001816001161561010002031660029004905014612d1457600860008381526020019081526020016000206000612d139190613aaa565b5b612d6582600160008473ffffffffffffffffffffffffffffffffffffffff1673ffffffffffffffffffffffffffffffffffffffff168152602001908152602001600020612fbf90919063ffffffff16565b50612d7a82600261324b90919063ffffffff16565b5081600073ffffffffffffffffffffffffffffffffffffffff168273ffffffffffffffffffffffffffffffffffffffff167fddf252ad1be2c89b69c2b068fc378daa952ba7f163c4a11628f55a4df523b3ef60405160405180910390a45050565b612de6848484612709565b612df284848484613265565b612e47576040517f08c379a0000000000000000000000000000000000000000000000000000000008152600401808060200182810382526032815260200180613ba46032913960400191505060405180910390fd5b50505050565b60606000821415612e95576040518060400160405280600181526020017f30000000000000000000000000000000000000000000000000000000000000008152509050612f8f565b600082905060005b60008214612ebf578080600101915050600a8281612eb757fe5b049150612e9d565b60608167ffffffffffffffff81118015612ed857600080fd5b506040519080825280601f01601f191660200182016040528015612f0b5781602001600182028036833780820191505090505b50905060006001830390508593505b60008414612f8757600a8481612f2c57fe5b0660300160f81b82828060019003935081518110612f4657fe5b60200101907effffffffffffffffffffffffffffffffffffffffffffffffffffffffffffff1916908160001a905350600a8481612f7f57fe5b049350612f1a565b819450505050505b919050565b6000612fa6836000018360001b613477565b905092915050565b600081600001805490509050919050565b6000612fd1836000018360001b61349a565b905092915050565b6000612feb836000018360001b613582565b905092915050565b600061301f846000018460001b8473ffffffffffffffffffffffffffffffffffffffff1660001b6135f2565b90509392505050565b600081836000018054905011613089576040517f08c379a0000000000000000000000000000000000000000000000000000000008152600401808060200182810382526022815260200180613b106022913960400191505060405180910390fd5b82600001828154811061309857fe5b9060005260206000200154905092915050565b6000808284600001805490501161310d576040517f08c379a0000000000000000000000000000000000000000000000000000000008152600401808060200182810382526022815260200180613da36022913960400191505060405180910390fd5b600084600001848154811061311e57fe5b906000526020600020906002020190508060000154816001015492509250509250929050565b6000808460010160008581526020019081526020016000205490506000811415839061320b576040517f08c379a00000000000000000000000000000000000000000000000000000000081526004018080602001828103825283818151815260200191508051906020019080838360005b838110156131d05780820151818401526020810190506131b5565b50505050905090810190601f1680156131fd5780820380516001836020036101000a031916815260200191505b509250505060405180910390fd5b5084600001600182038154811061321e57fe5b9060005260206000209060020201600101549150509392505050565b600081600001805490509050919050565b600061325d836000018360001b6136ce565b905092915050565b60006132868473ffffffffffffffffffffffffffffffffffffffff166137e7565b613293576001905061346f565b60606133f663150b7a0260e01b33888787604051602401808573ffffffffffffffffffffffffffffffffffffffff1681526020018473ffffffffffffffffffffffffffffffffffffffff16815260200183815260200180602001828103825283818151815260200191508051906020019080838360005b8381101561332557808201518184015260208101905061330a565b50505050905090810190601f1680156133525780820380516001836020036101000a031916815260200191505b5095505050505050604051602081830303815290604052907bffffffffffffffffffffffffffffffffffffffffffffffffffffffff19166020820180517bffffffffffffffffffffffffffffffffffffffffffffffffffffffff8381831617835250505050604051806060016040528060328152602001613ba4603291398773ffffffffffffffffffffffffffffffffffffffff166137fa9092919063ffffffff16565b9050600081806020019051602081101561340f57600080fd5b8101908080519060200190929190505050905063150b7a0260e01b7bffffffffffffffffffffffffffffffffffffffffffffffffffffffff1916817bffffffffffffffffffffffffffffffffffffffffffffffffffffffff191614925050505b949350505050565b600080836001016000848152602001908152602001600020541415905092915050565b6000808360010160008481526020019081526020016000205490506000811461357657600060018203905060006001866000018054905003905060008660000182815481106134e557fe5b906000526020600020015490508087600001848154811061350257fe5b906000526020600020018190555060018301876001016000838152602001908152602001600020819055508660000180548061353a57fe5b6001900381819060005260206000200160009055905586600101600087815260200190815260200160002060009055600194505050505061357c565b60009150505b92915050565b600061358e8383613812565b6135e75782600001829080600181540180825580915050600190039060005260206000200160009091909190915055826000018054905083600101600084815260200190815260200160002081905550600190506135ec565b600090505b92915050565b6000808460010160008581526020019081526020016000205490506000811415613699578460000160405180604001604052808681526020018581525090806001815401808255809150506001900390600052602060002090600202016000909190919091506000820151816000015560208201518160010155505084600001805490508560010160008681526020019081526020016000208190555060019150506136c7565b828560000160018303815481106136ac57fe5b90600052602060002090600202016001018190555060009150505b9392505050565b600080836001016000848152602001908152602001600020549050600081146137db576000600182039050600060018660000180549050039050600086600001828154811061371957fe5b906000526020600020906002020190508087600001848154811061373957fe5b906000526020600020906002020160008201548160000155600182015481600101559050506001830187600101600083600001548152602001908152602001600020819055508660000180548061378c57fe5b60019003818190600052602060002090600202016000808201600090556001820160009055505090558660010160008781526020019081526020016000206000905560019450505050506137e1565b60009150505b92915050565b600080823b905060008111915050919050565b60606138098484600085613835565b90509392505050565b600080836001016000848152602001908152602001600020541415905092915050565b606082471015613890576040517f08c379a0000000000000000000000000000000000000000000000000000000008152600401808060200182810382526026815260200180613c546026913960400191505060405180910390fd5b613899856137e7565b61390b576040517f08c379a000000000000000000000000000000000000000000000000000000000815260040180806020018281038252601d8152602001807f416464726573733a2063616c6c20746f206e6f6e2d636f6e747261637400000081525060200191505060405180910390fd5b600060608673ffffffffffffffffffffffffffffffffffffffff1685876040518082805190602001908083835b6020831061395b5780518252602082019150602081019050602083039250613938565b6001836020036101000a03801982511681845116808217855250505050505090500191505060006040518083038185875af1925050503d80600081146139bd576040519150601f19603f3d011682016040523d82523d6000602084013e6139c2565b606091505b50915091506139d28282866139de565b92505050949350505050565b606083156139ee57829050613aa3565b600083511115613a015782518084602001fd5b816040517f08c379a00000000000000000000000000000000000000000000000000000000081526004018080602001828103825283818151815260200191508051906020019080838360005b83811015613a68578082015181840152602081019050613a4d565b50505050905090810190601f168015613a955780820380516001836020036101000a031916815260200191505b509250505060405180910390fd5b9392505050565b50805460018160011615610100020316600290046000825580601f10613ad05750613aef565b601f016020900490600052602060002090810190613aee9190613af2565b5b50565b5b80821115613b0b576000816000905550600101613af3565b509056fe456e756d657261626c655365743a20696e646578206f7574206f6620626f756e64733c7265637420783d273130302720793d2730272077696474683d2731303027206865696768743d2731303027207374796c653d2766696c6c3a3c7265637420783d27302720793d27313030272077696474683d2731303027206865696768743d2731303027207374796c653d2766696c6c3a4552433732313a207472616e7366657220746f206e6f6e20455243373231526563656976657220696d706c656d656e7465723c7265637420783d27302720793d2730272077696474683d2731303027206865696768743d2731303027207374796c653d2766696c6c3a4e454f4c4153544943533a204275726e6572206973206e6f74207468652063757276654552433732313a207472616e7366657220746f20746865207a65726f2061646472657373416464726573733a20696e73756666696369656e742062616c616e636520666f722063616c6c4552433732313a206f70657261746f7220717565727920666f72206e6f6e6578697374656e7420746f6b656e4552433732313a20617070726f76652063616c6c6572206973206e6f74206f776e6572206e6f7220617070726f76656420666f7220616c6c4552433732313a2062616c616e636520717565727920666f7220746865207a65726f20616464726573734552433732313a206f776e657220717565727920666f72206e6f6e6578697374656e7420746f6b656e3c7265637420783d27302720793d27323030272077696474683d2731303027206865696768743d2731303027207374796c653d2766696c6c3a3c7265637420783d273230302720793d2730272077696474683d2731303027206865696768743d2731303027207374796c653d2766696c6c3a456e756d657261626c654d61703a20696e646578206f7574206f6620626f756e64734e454f4c4153544943533a204e6f742074686520636f7272656374206f776e65724552433732313a20617070726f76656420717565727920666f72206e6f6e6578697374656e7420746f6b656e4e454f4c4153544943533a204d696e746572206973206e6f74207468652063757276654552433732313a207472616e73666572206f6620746f6b656e2074686174206973206e6f74206f776e4552433732314d657461646174613a2055524920717565727920666f72206e6f6e6578697374656e7420746f6b656e4552433732313a20617070726f76616c20746f2063757272656e74206f776e65723c7265637420783d273230302720793d27323030272077696474683d2731303027206865696768743d2731303027207374796c653d2766696c6c3a4552433732313a207472616e736665722063616c6c6572206973206e6f74206f776e6572206e6f7220617070726f7665643c7265637420783d273130302720793d27323030272077696474683d2731303027206865696768743d2731303027207374796c653d2766696c6c3a3c7265637420783d273130302720793d27313030272077696474683d2731303027206865696768743d2731303027207374796c653d2766696c6c3a3c7265637420783d273230302720793d27313030272077696474683d2731303027206865696768743d2731303027207374796c653d2766696c6c3aa264697066735822122038c437f99b29c5d5f9481b7f772dee7bfb8e894006b3d4cc2d5f8d857317dd8064736f6c63430007030033",
  "linkReferences": {},
  "deployedLinkReferences": {}
}